{
  "address": "0xCf7Ed3AccA5a467e9e704C703E8D87F634fB0Fc9",
  "abi": [
    {
      "inputs": [
        {
          "internalType": "address",
          "name": "vrfCoordinatorV2",
          "type": "address"
        },
        {
          "internalType": "uint64",
          "name": "subscriptionId",
          "type": "uint64"
        },
        {
          "internalType": "uint256",
          "name": "entranceFee",
          "type": "uint256"
        },
        {
          "internalType": "bytes32",
          "name": "gasLane",
          "type": "bytes32"
        },
        {
          "internalType": "uint32",
          "name": "callbackGasLimit",
          "type": "uint32"
        },
        {
          "internalType": "uint256",
          "name": "interval",
          "type": "uint256"
        }
      ],
      "stateMutability": "nonpayable",
      "type": "constructor"
    },
    {
      "inputs": [
        {
          "internalType": "address",
          "name": "have",
          "type": "address"
        },
        {
          "internalType": "address",
          "name": "want",
          "type": "address"
        }
      ],
      "name": "OnlyCoordinatorCanFulfill",
      "type": "error"
    },
    {
      "inputs": [],
      "name": "Raffle__NotEnoughETHEntered",
      "type": "error"
    },
    {
      "inputs": [],
      "name": "Raffle__NotOpen",
      "type": "error"
    },
    {
      "inputs": [],
      "name": "Raffle__TransferToWinnerFailed",
      "type": "error"
    },
    {
      "inputs": [],
      "name": "Raffle__UpkeepNotNeeded",
      "type": "error"
    },
    {
      "anonymous": false,
      "inputs": [
        {
          "indexed": true,
          "internalType": "address",
          "name": "player",
          "type": "address"
        }
      ],
      "name": "RaffleEnter",
      "type": "event"
    },
    {
      "anonymous": false,
      "inputs": [
        {
          "indexed": true,
          "internalType": "uint256",
          "name": "requestId",
          "type": "uint256"
        }
      ],
      "name": "RequestRaffleWinner",
      "type": "event"
    },
    {
      "anonymous": false,
      "inputs": [
        {
          "indexed": true,
          "internalType": "address",
          "name": "winner",
          "type": "address"
        }
      ],
      "name": "WinnerPicked",
      "type": "event"
    },
    {
      "inputs": [
        {
          "internalType": "bytes",
          "name": "",
          "type": "bytes"
        }
      ],
      "name": "checkUpkeep",
      "outputs": [
        {
          "internalType": "bool",
          "name": "upkeepNeeded",
          "type": "bool"
        },
        {
          "internalType": "bytes",
          "name": "",
          "type": "bytes"
        }
      ],
      "stateMutability": "view",
      "type": "function"
    },
    {
      "inputs": [],
      "name": "enterRaffle",
      "outputs": [],
      "stateMutability": "payable",
      "type": "function"
    },
    {
      "inputs": [],
      "name": "getEntranceFee",
      "outputs": [
        {
          "internalType": "uint256",
          "name": "",
          "type": "uint256"
        }
      ],
      "stateMutability": "view",
      "type": "function"
    },
    {
      "inputs": [],
      "name": "getInterval",
      "outputs": [
        {
          "internalType": "uint256",
          "name": "",
          "type": "uint256"
        }
      ],
      "stateMutability": "view",
      "type": "function"
    },
    {
      "inputs": [],
      "name": "getLastTimeStamp",
      "outputs": [
        {
          "internalType": "uint256",
          "name": "",
          "type": "uint256"
        }
      ],
      "stateMutability": "view",
      "type": "function"
    },
    {
      "inputs": [],
      "name": "getNumWords",
      "outputs": [
        {
          "internalType": "uint256",
          "name": "",
          "type": "uint256"
        }
      ],
      "stateMutability": "pure",
      "type": "function"
    },
    {
      "inputs": [
        {
          "internalType": "uint256",
          "name": "index",
          "type": "uint256"
        }
      ],
      "name": "getPlayer",
      "outputs": [
        {
          "internalType": "address",
          "name": "",
          "type": "address"
        }
      ],
      "stateMutability": "view",
      "type": "function"
    },
    {
      "inputs": [],
      "name": "getRaffleState",
      "outputs": [
        {
          "internalType": "enum Raffle.RaffleState",
          "name": "",
          "type": "uint8"
        }
      ],
      "stateMutability": "view",
      "type": "function"
    },
    {
      "inputs": [],
      "name": "getRecentWinner",
      "outputs": [
        {
          "internalType": "address",
          "name": "",
          "type": "address"
        }
      ],
      "stateMutability": "view",
      "type": "function"
    },
    {
      "inputs": [],
      "name": "getRequestConfirmations",
      "outputs": [
        {
          "internalType": "uint256",
          "name": "",
          "type": "uint256"
        }
      ],
      "stateMutability": "pure",
      "type": "function"
    },
    {
      "inputs": [
        {
          "internalType": "bytes",
          "name": "",
          "type": "bytes"
        }
      ],
      "name": "performUpkeep",
      "outputs": [],
      "stateMutability": "nonpayable",
      "type": "function"
    },
    {
      "inputs": [
        {
          "internalType": "uint256",
          "name": "requestId",
          "type": "uint256"
        },
        {
          "internalType": "uint256[]",
          "name": "randomWords",
          "type": "uint256[]"
        }
      ],
      "name": "rawFulfillRandomWords",
      "outputs": [],
      "stateMutability": "nonpayable",
      "type": "function"
    }
  ],
  "transactionHash": "0x313c85cded79877cd5ad5aecc9dbb4ad72085d5081162f5867be942456525664",
  "args": [
    "0x5FbDB2315678afecb367f032d93F642f64180aa3",
    1,
    "10000000000000000",
    "0x474e34a077df58807dbe9c96d3c009b23b3c6d0cce433e59bbf5b34f823bc56c",
    500000,
    "30"
  ],
  "numDeployments": 1,
  "solcInputHash": "be841c57b1f22cbe5f36c2382aace697",
  "bytecode": "0x6101606040523480156200001257600080fd5b506040516200177f3803806200177f833981810160405281019062000038919062000294565b858073ffffffffffffffffffffffffffffffffffffffff1660808173ffffffffffffffffffffffffffffffffffffffff1681525050508360a081815250508573ffffffffffffffffffffffffffffffffffffffff1660c08173ffffffffffffffffffffffffffffffffffffffff16815250508260e081815250508467ffffffffffffffff166101008167ffffffffffffffff16815250508163ffffffff166101208163ffffffff16815250506000600160146101000a81548160ff021916908360018111156200010d576200010c62000330565b5b0217905550426002819055508061014081815250505050505050506200035f565b600080fd5b600073ffffffffffffffffffffffffffffffffffffffff82169050919050565b6000620001608262000133565b9050919050565b620001728162000153565b81146200017e57600080fd5b50565b600081519050620001928162000167565b92915050565b600067ffffffffffffffff82169050919050565b620001b78162000198565b8114620001c357600080fd5b50565b600081519050620001d781620001ac565b92915050565b6000819050919050565b620001f281620001dd565b8114620001fe57600080fd5b50565b6000815190506200021281620001e7565b92915050565b6000819050919050565b6200022d8162000218565b81146200023957600080fd5b50565b6000815190506200024d8162000222565b92915050565b600063ffffffff82169050919050565b6200026e8162000253565b81146200027a57600080fd5b50565b6000815190506200028e8162000263565b92915050565b60008060008060008060c08789031215620002b457620002b36200012e565b5b6000620002c489828a0162000181565b9650506020620002d789828a01620001c6565b9550506040620002ea89828a0162000201565b9450506060620002fd89828a016200023c565b93505060806200031089828a016200027d565b92505060a06200032389828a0162000201565b9150509295509295509295565b7f4e487b7100000000000000000000000000000000000000000000000000000000600052602160045260246000fd5b60805160a05160c05160e0516101005161012051610140516113b0620003cf60003960008181610762015261080b01526000610620015260006105fd015260006105dc015260006105a00152600081816102b401526103b10152600081816102f1015261034501526113b06000f3fe6080604052600436106100a75760003560e01c806353a2c19a1161006457806353a2c19a146101895780635f1b0fd8146101b45780636e04ff0d146101df57806391ad27b41461021d578063c1c244e814610248578063e55ae4e814610273576100a7565b806309bc33a7146100ac578063115cbaf5146100d75780631fe543e3146101025780632cfcc5391461012b5780634585e33b14610135578063473f1ddc1461015e575b600080fd5b3480156100b857600080fd5b506100c16102b0565b6040516100ce9190610b71565b60405180910390f35b3480156100e357600080fd5b506100ec6102d8565b6040516100f99190610c03565b60405180910390f35b34801561010e57600080fd5b5061012960048036038101906101249190610db7565b6102ef565b005b6101336103af565b005b34801561014157600080fd5b5061015c60048036038101906101579190610e6e565b61051e565b005b34801561016a57600080fd5b506101736106d9565b6040516101809190610efc565b60405180910390f35b34801561019557600080fd5b5061019e610703565b6040516101ab9190610b71565b60405180910390f35b3480156101c057600080fd5b506101c9610712565b6040516101d69190610b71565b60405180910390f35b3480156101eb57600080fd5b5061020660048036038101906102019190610fcc565b61071f565b6040516102149291906110af565b60405180910390f35b34801561022957600080fd5b50610232610807565b60405161023f9190610b71565b60405180910390f35b34801561025457600080fd5b5061025d61082f565b60405161026a9190610b71565b60405180910390f35b34801561027f57600080fd5b5061029a600480360381019061029591906110df565b610839565b6040516102a79190610efc565b60405180910390f35b60007f0000000000000000000000000000000000000000000000000000000000000000905090565b6000600160149054906101000a900460ff16905090565b7f000000000000000000000000000000000000000000000000000000000000000073ffffffffffffffffffffffffffffffffffffffff163373ffffffffffffffffffffffffffffffffffffffff16146103a157337f00000000000000000000000000000000000000000000000000000000000000006040517f1cf993f400000000000000000000000000000000000000000000000000000000815260040161039892919061110c565b60405180910390fd5b6103ab8282610880565b5050565b7f0000000000000000000000000000000000000000000000000000000000000000341015610409576040517fbd4e069500000000000000000000000000000000000000000000000000000000815260040160405180910390fd5b6000600181111561041d5761041c610b8c565b5b600160149054906101000a900460ff16600181111561043f5761043e610b8c565b5b14610476576040517f1425571c00000000000000000000000000000000000000000000000000000000815260040160405180910390fd5b6000339080600181540180825580915050600190039060005260206000200160009091909190916101000a81548173ffffffffffffffffffffffffffffffffffffffff021916908373ffffffffffffffffffffffffffffffffffffffff1602179055503373ffffffffffffffffffffffffffffffffffffffff167f0805e1d667bddb8a95f0f09880cf94f403fb596ce79928d9f29b74203ba284d460405160405180910390a2565b60006105386040518060200160405280600081525061071f565b50905080610572576040517f8e4bc81700000000000000000000000000000000000000000000000000000000815260040160405180910390fd5b60018060146101000a81548160ff0219169083600181111561059757610596610b8c565b5b021790555060007f000000000000000000000000000000000000000000000000000000000000000073ffffffffffffffffffffffffffffffffffffffff16635d3b1d307f00000000000000000000000000000000000000000000000000000000000000007f000000000000000000000000000000000000000000000000000000000000000060037f000000000000000000000000000000000000000000000000000000000000000060016040518663ffffffff1660e01b81526004016106619594939291906111ad565b6020604051808303816000875af1158015610680573d6000803e3d6000fd5b505050506040513d601f19601f820116820180604052508101906106a49190611215565b9050807fde6349b018d6c03d837b67d9a198a6ba4842546f2295fe963fae141e5dbaef8160405160405180910390a250505050565b6000600160009054906101000a900473ffffffffffffffffffffffffffffffffffffffff16905090565b6000600163ffffffff16905090565b6000600361ffff16905090565b600060606000600160149054906101000a900460ff16600181111561074757610746610b8c565b5b6000600181111561075b5761075a610b8c565b5b14905060007f00000000000000000000000000000000000000000000000000000000000000006002544261078f9190611271565b119050600080600080549050119050600080471190508380156107af5750825b80156107b85750815b80156107c15750805b9550856040518060400160405280600381526020017f30783000000000000000000000000000000000000000000000000000000000008152509550955050505050915091565b60007f0000000000000000000000000000000000000000000000000000000000000000905090565b6000600254905090565b600080828154811061084e5761084d6112a5565b5b9060005260206000200160009054906101000a900473ffffffffffffffffffffffffffffffffffffffff169050919050565b600080805490508260008151811061089b5761089a6112a5565b5b60200260200101516108ad9190611303565b905060008082815481106108c4576108c36112a5565b5b9060005260206000200160009054906101000a900473ffffffffffffffffffffffffffffffffffffffff16905080600160006101000a81548173ffffffffffffffffffffffffffffffffffffffff021916908373ffffffffffffffffffffffffffffffffffffffff1602179055506000600160146101000a81548160ff0219169083600181111561095857610957610b8c565b5b0217905550600067ffffffffffffffff81111561097857610977610c74565b5b6040519080825280602002602001820160405280156109a65781602001602082028036833780820191505090505b50600090805190602001906109bc929190610ab1565b504260028190555060008173ffffffffffffffffffffffffffffffffffffffff16476040516109ea90611365565b60006040518083038185875af1925050503d8060008114610a27576040519150601f19603f3d011682016040523d82523d6000602084013e610a2c565b606091505b5050905080610a67576040517f7a84c07000000000000000000000000000000000000000000000000000000000815260040160405180910390fd5b8173ffffffffffffffffffffffffffffffffffffffff167f5b690ec4a06fe979403046eaeea5b3ce38524683c3001f662c8b5a829632f7df60405160405180910390a25050505050565b828054828255906000526020600020908101928215610b2a579160200282015b82811115610b295782518260006101000a81548173ffffffffffffffffffffffffffffffffffffffff021916908373ffffffffffffffffffffffffffffffffffffffff16021790555091602001919060010190610ad1565b5b509050610b379190610b3b565b5090565b5b80821115610b54576000816000905550600101610b3c565b5090565b6000819050919050565b610b6b81610b58565b82525050565b6000602082019050610b866000830184610b62565b92915050565b7f4e487b7100000000000000000000000000000000000000000000000000000000600052602160045260246000fd5b60028110610bcc57610bcb610b8c565b5b50565b6000819050610bdd82610bbb565b919050565b6000610bed82610bcf565b9050919050565b610bfd81610be2565b82525050565b6000602082019050610c186000830184610bf4565b92915050565b6000604051905090565b600080fd5b600080fd5b610c3b81610b58565b8114610c4657600080fd5b50565b600081359050610c5881610c32565b92915050565b600080fd5b6000601f19601f8301169050919050565b7f4e487b7100000000000000000000000000000000000000000000000000000000600052604160045260246000fd5b610cac82610c63565b810181811067ffffffffffffffff82111715610ccb57610cca610c74565b5b80604052505050565b6000610cde610c1e565b9050610cea8282610ca3565b919050565b600067ffffffffffffffff821115610d0a57610d09610c74565b5b602082029050602081019050919050565b600080fd5b6000610d33610d2e84610cef565b610cd4565b90508083825260208201905060208402830185811115610d5657610d55610d1b565b5b835b81811015610d7f5780610d6b8882610c49565b845260208401935050602081019050610d58565b5050509392505050565b600082601f830112610d9e57610d9d610c5e565b5b8135610dae848260208601610d20565b91505092915050565b60008060408385031215610dce57610dcd610c28565b5b6000610ddc85828601610c49565b925050602083013567ffffffffffffffff811115610dfd57610dfc610c2d565b5b610e0985828601610d89565b9150509250929050565b600080fd5b60008083601f840112610e2e57610e2d610c5e565b5b8235905067ffffffffffffffff811115610e4b57610e4a610e13565b5b602083019150836001820283011115610e6757610e66610d1b565b5b9250929050565b60008060208385031215610e8557610e84610c28565b5b600083013567ffffffffffffffff811115610ea357610ea2610c2d565b5b610eaf85828601610e18565b92509250509250929050565b600073ffffffffffffffffffffffffffffffffffffffff82169050919050565b6000610ee682610ebb565b9050919050565b610ef681610edb565b82525050565b6000602082019050610f116000830184610eed565b92915050565b600080fd5b600067ffffffffffffffff821115610f3757610f36610c74565b5b610f4082610c63565b9050602081019050919050565b82818337600083830152505050565b6000610f6f610f6a84610f1c565b610cd4565b905082815260208101848484011115610f8b57610f8a610f17565b5b610f96848285610f4d565b509392505050565b600082601f830112610fb357610fb2610c5e565b5b8135610fc3848260208601610f5c565b91505092915050565b600060208284031215610fe257610fe1610c28565b5b600082013567ffffffffffffffff81111561100057610fff610c2d565b5b61100c84828501610f9e565b91505092915050565b60008115159050919050565b61102a81611015565b82525050565b600081519050919050565b600082825260208201905092915050565b60005b8381101561106a57808201518184015260208101905061104f565b60008484015250505050565b600061108182611030565b61108b818561103b565b935061109b81856020860161104c565b6110a481610c63565b840191505092915050565b60006040820190506110c46000830185611021565b81810360208301526110d68184611076565b90509392505050565b6000602082840312156110f5576110f4610c28565b5b600061110384828501610c49565b91505092915050565b60006040820190506111216000830185610eed565b61112e6020830184610eed565b9392505050565b6000819050919050565b61114881611135565b82525050565b600067ffffffffffffffff82169050919050565b61116b8161114e565b82525050565b600061ffff82169050919050565b61118881611171565b82525050565b600063ffffffff82169050919050565b6111a78161118e565b82525050565b600060a0820190506111c2600083018861113f565b6111cf6020830187611162565b6111dc604083018661117f565b6111e9606083018561119e565b6111f6608083018461119e565b9695505050505050565b60008151905061120f81610c32565b92915050565b60006020828403121561122b5761122a610c28565b5b600061123984828501611200565b91505092915050565b7f4e487b7100000000000000000000000000000000000000000000000000000000600052601160045260246000fd5b600061127c82610b58565b915061128783610b58565b925082820390508181111561129f5761129e611242565b5b92915050565b7f4e487b7100000000000000000000000000000000000000000000000000000000600052603260045260246000fd5b7f4e487b7100000000000000000000000000000000000000000000000000000000600052601260045260246000fd5b600061130e82610b58565b915061131983610b58565b925082611329576113286112d4565b5b828206905092915050565b600081905092915050565b50565b600061134f600083611334565b915061135a8261133f565b600082019050919050565b600061137082611342565b915081905091905056fea26469706673582212200c36c01be229108751a17e30b2cf175a3df3b1f97646ecccee727fbe001b263c64736f6c63430008120033",
  "devdoc": {
    "kind": "dev",
    "methods": {
      "checkUpkeep(bytes)": {
        "details": "This checkUpKeep() is the function that the Chainlink Keeper nodes call they look for `upkeepNeeded` to return True. the following should be true for this to return true: 1. The time interval has passed between raffle runs. 2. The lottery is open. 3. The contract has ETH. 4. Implicity, your subscription is funded with LINK. ye true return kre ga tabbhi performUpKeep chalega... earlier we named performUpKeep as requestRandomWinner , but now we are gonna change it to performUpKeep coz we are gonna use the keeper network to automate the process of picking a winner from time to time so that we don't have to do anything manually"
      }
    },
    "version": 1
  },
  "userdoc": {
    "kind": "user",
    "methods": {},
    "version": 1
  },
  "storageLayout": {
    "storage": [
      {
        "astId": 197,
        "contract": "contracts/Raffle.sol:Raffle",
        "label": "s_players",
        "offset": 0,
        "slot": "0",
        "type": "t_array(t_address_payable)dyn_storage"
      },
      {
        "astId": 214,
        "contract": "contracts/Raffle.sol:Raffle",
        "label": "s_recentWinner",
        "offset": 0,
        "slot": "1",
        "type": "t_address"
      },
      {
        "astId": 217,
        "contract": "contracts/Raffle.sol:Raffle",
        "label": "s_raffleState",
        "offset": 20,
        "slot": "1",
        "type": "t_enum(RaffleState)192"
      },
      {
        "astId": 219,
        "contract": "contracts/Raffle.sol:Raffle",
        "label": "s_lastTimeStamp",
        "offset": 0,
        "slot": "2",
        "type": "t_uint256"
      }
    ],
    "types": {
      "t_address": {
        "encoding": "inplace",
        "label": "address",
        "numberOfBytes": "20"
      },
      "t_address_payable": {
        "encoding": "inplace",
        "label": "address payable",
        "numberOfBytes": "20"
      },
      "t_array(t_address_payable)dyn_storage": {
        "base": "t_address_payable",
        "encoding": "dynamic_array",
        "label": "address payable[]",
        "numberOfBytes": "32"
      },
      "t_enum(RaffleState)192": {
        "encoding": "inplace",
        "label": "enum Raffle.RaffleState",
        "numberOfBytes": "1"
      },
      "t_uint256": {
        "encoding": "inplace",
        "label": "uint256",
        "numberOfBytes": "32"
      }
    }
  }
}